S00D0000726973762E737265630053
S1130000971100009381018017710020130141FFB3
S11300100A84174500201305E5FE17460020130641
S1130020E6FE098E8145F52F17450020130585FD51
S1130030970500009385057E17060000130686FCCD
S1130040EF001015170500201305C5FB97050000E8
S11300509385457C170600001306C6FAEF0050137B
S113006017050000130505FA11C51705000013054F
S113007065F90120EF00B020EF00300E0145814505
S10D00800146EF0090046F007025A4
S11300C0540900005409000054090000CC08000041
S11300D0540900005409000054090000D00800002D
S11300E05409000054090000540900005409000098
S11300F05409000054090000540900005409000088
S1130100540900005409000054090000D4080000F8
S1130110D8080000DC080000E0080000E408000043
S1130120E8080000EC080000F0080000F4080000F3
S1130130F8080000FC0800000009000004090000A1
S1130140080900000C09000010090000140900004F
S1130150180900001C0900002009000024090000FF
S1130160280900002C0900003009000034090000AF
S1130170380900003C09000040090000440900005F
S10F0180480900004C0900005009000070
S10701C058090000D6
S1070400FFFFFFFFF8
S1070404D7CFFFFF4C
S1130408FFFFFFFFFFFFFFFFFFFFFFFFFFFFFFFFF0
S1130418FFFFFFFFFFFFFFFFFFFFFFFFFFFFFFFFE0
S1130428FFFFFFFFFFFFFFFFFFFFFFFFFFFFFFFFD0
S1070438FFFFFFFFC0
S1130800FFFFFFFFFFFFFFFFFFFFFFFFFFFFFFFFF4
S1130810B702100032051305353312050D0523A068
S1130820A2003D432A876373C3029377F700BDEFA9
S1130830ADE5937606FF3D8ABA960CC34CC30CC74C
S11308404CC74107E36BD7FE11E28280B306C34075
S11308508A069702000096966780A6002307B700D1
S1130860A306B7002306B700A305B7002305B70006
S1130870A304B7002304B700A303B7002303B700FE
S1130880A302B7002302B700A301B7002301B700F6
S1130890A300B7002300B700828093F5F50F939669
S11308A08500D58D93960501D58D61B79396270064
S11308B09702000096968682E78086FA9680C11792
S11308C01D8F3E96E374C3F8A5B701A073002030D2
S11308D07300203073002030730020307300203008
S11308E073002030730020307300203073002030F8
S11308F073002030730020307300203073002030E8
S113090073002030730020307300203073002030D7
S113091073002030730020307300203073002030C7
S113092073002030730020307300203073002030B7
S113093073002030730020307300203073002030A7
S11309407300203073002030730020307300203097
S11309507300203073002030828001459302201CF4
S1130960739052309302000C73907230B71500E20A
S113097089051306200383C6050093E61600238029
S1130980D5009376F50F05059105E3E6C6FE828052
S1130990411122C69376350013F73500358F33376E
S11309A0E000933746005D8F3308C50015EF9DEED8
S11309B02A869376C8FFB382C6401307100263D712
S11309C0E204AE873287637BD7008C43130647006B
S11309D091070CC33287E36AD6FE11A03A8663629C
S11309E006093244410182802A86ADA89306150087
S11309F02A8783C705001306170085052300F7001F
S1130A0093F7360085063287EDF765B79308000241
S1130A10984103A3450083A3850003AEC50083AEBC
S1130A20050103AF450183AF8501C04D938745029E
S1130A308C5118C223226600232476002326C60183
S1130A402328D601232AE601232CF60140CE1307DE
S1130A5046029382C2FD0CD23A86BE85E3CA58FA96
S1130A609DB7BE85E37F06F7B306C84003C70500FC
S1130A702300E6000506FD168505EDFA9DB7411134
S1130A8006C622C426C2371500001304C5BB371599
S1130A9000001305C5BB018D098509C98545B374DB
S1130AA0B50A08400295FD141104E5FC3715000051
S1130AB01304C5BB371500001305C5BB018D09859B
S1130AC009C98545B374B50A08400295FD1411049B
S1130AD0E5FCB2402244924441018280411106C6A1
S1130AE022C42A848145092837450020032545006E
S1130AF011C102952285293B797106D622D426D2CA
S1130B004AD04ECE52CC56CA5AC85EC6B749002007
S1130B1003AB090063090B08AE8A2A89054A03243A
S1130B204B00635280083345642193044508A28B2B
S1130B3015A0029603254B0083A5090033C6AB001C
S1130B40B3C56501D18DAA8BB9E913051400F1145D
S1130B50635BAA0422857D1463860A0083A50408C6
S1130B60E39555FF03A604F86317750123228B0050
S1130B70A28B09E6D9BF23A004F861DA83258B1878
S1130B8033158028E98DD5D58326CB188C40758DF7
S1130B9001C52E85029679BF4A85029661BF03ABD3
S1130BA00900E31E0BF6B250225492540259F24942
S10F0BB0624AD24A424BB24B456182803B
S30901010008FFFFFFFFF0
S30901010010FFFFFFFFE8
S30901010018FFFFFFFFE0
S30901010020FFFFFFFFD8
S30901010028FFFFFFFFD0
S30901010030FFFFFFFFC8
S9030000FC
